:02000000222AB2
:0E000600533083120313FD00FD0B0728080082
:10001400243083120313FC00B530FD00FD0B1028BF
:0A002400FC0B10280000000008008B
:0C002E00000000000000000000000800BE
:10003A0083160313A21B24288312861126288312EF
:10004A0086158316221B2C28831206112E2883124A
:10005A0006158316A21A34288312861036288312AC
:10006A0086148316221A3C28831206103E2883120D
:10007A000614581842280616432806128616172010
:10008A0086128316A2194C28831286114E288312CF
:10009A0086158316221954288312061156288312AC
:1000AA0006158316A2185C28831286105E2883120E
:1000BA00861483162218642883120610662883126F
:1000CA00061458186A2806166B2806128616172070
:0E00DA008612581C72280A2073280320080082
:1000E80083120313F801F9011030FC00710DF80DAB
:1000F800F90D7408F8027508031C750FF902031846
:100108008C287408F80775080318750FF907031089
:0A011800F00DF10DFC0B7A28080031
:10012200243083120313FD00FD0B95280000080004
:0E013200831203135C088A005B088200080039
:100140008312031358106D088316A2001D20581443
:020150000800A5
:1001520083160313A001053020020318B9282008D2
:1001620083126F078400203080008316A00AAC2817
:10017200200883126F07840080018316A0032008E1
:1001820083126F078316A1000A30F400F50183126F
:100192006D08F0006E08F10074207808F00079080C
:1001A200F1003030F00783162108840070088000C7
:1001B2000A30F400F50183126D08F0006E08F100B8
:1001C20074207008ED007108EE0000307106031D06
:1001D200EC2800307006031DEF28F2288316A003D6
:0401E200C028080029
:1001E6000529803083120313E4001829C030E40087
:1001F60018299430E4001829D430E40018298030F6
:10020600E4001829831203136408013A0319F42839
:100216006408023A0319F9286408033A0319FC280A
:100226006408043A0319FF2802296503F0006408EC
:10023600F0077008E40070088316A2001D2058100D
:10024600E701670866078400000803193229670872
:10025600660784000008ED00A020E70A2429581448
:0202660008008E
:10026800831203139F01C0309F043509F000700802
:1002780083169F051F179F1783126408F000F00D5F
:100288007010F00D7010F00D701070089F041F149E
:1002980091201F151F1D522900004E291F101E08EE
:1002A800F100F00183161E08F0040030F104080084
:1002B80083120313E901EA016408EB006508EC0006
:1002C80080306506F00080307002031D6D29003013
:1002D800640203187B290130E9000030EA00640851
:1002E800003CEB006508031C013EEC01EC026B08C6
:1002F800ED006C08EE006608EF00A92006308312B6
:100308000313E7000030E8006808003C031D8E294D
:100318006708003C0318A92967086607F20001303E
:100328006702F0000030031C013E6802F10070080B
:10033800660784000008F0007208840070088000D6
:100348000130E702031CE80388296608840020308E
:10035800800069086A040319C729E701E8016708EA
:10036800660784000008203A031DBE29E70A03191E
:10037800E80AB3290130E702031CE80367086607A7
:0803880084002D308000080004
:1003900083160313861206120610861006118611A4
:1003A00083128612061286110611861006100A2084
:1003B0000A200A20861406148616172086120A20A0
:1003C0008616172086120A208616172086120A2003
:1003D00006108616172086120A2086161720861207
:1003E000861086158616172086120A208611061496
:1003F00086161720861206108616172086120A20E7
:1004000086161720861206148616172086120A20D2
:1004100006108616172086128615061586140614F1
:0C0420008616172086120A2058140800C7
:10042C0099208A110A128000840ADB0A0319DC0A5B
:08043C00F003031D162A08005D
:10044400FA228030831603139F00FF308500FF30AB
:1004540085008312860183168601C8210C30831619
:10046400A2001D20E401342170088312D900710810
:10047400DA007008E4007108E5005D30E6005C21F4
:100484005A08033C031D482A5908203C03186F2AC4
:1004940001308316A2001D200130E4000430E50081
:1004A4004630E600F3200230E4000130E5005D3020
:1004B400E600F3201A30FB005E30FC006E30FD00D5
:1004C400FD0B622AFC0B622AFB0B622A000001303E
:1004D4008316A2001D200617702A061300305A0244
:1004E400031D762A6430590203189D2A01308316AD
:1004F400A2001D200130E4000430E5002030E600B5
:10050400F3200230E4000130E5005D30E600F32022
:100514001A30FB005E30FC006E30FD00FD0B902AAB
:10052400FC0B902AFB0B902A000001308316A200DA
:100534001D2086179E2A861301308316A2001D20D3
:100544000230E4000130E5003630E600F3200B30E1
:10055400FB002630FC005D30FD00FD0BAF2AFC0BD8
:10056400AF2AFB0BAF2A0000000001308316A20063
:060574001D20342ABC2A00
:1005F40020308400383083120313F000C230DB0053
:080604000230DC0016220800A0
:1005840042346F346D3462346134203464346534FD
:100594007334613463347434693476346134643468
:0A05A4006134203420343A3400346E
:0205AE000F3408
:1005B00053346534673475346E3464346F342034A6
:1005C0007034613472346334693461346C340034AF
:1005D00042346F346D3462346134203461346334B6
:1005E00074346934763461346434613420342034B2
:0405F0003A34003465
:02400E004A2F37
:00000001FF
