:020000000629CF
:0E000600533083120313FD00FD0B0728080082
:10001400243083120313FC00B530FD00FD0B1028BF
:0A002400FC0B10280000000008008B
:0C002E00000000000000000000000800BE
:10003A0083120313D21B2328861124288615521BE8
:10004A002828061129280615D21A2D2886102E28A6
:10005A008614521A32280610332806144A183728EA
:10006A00061638280612861617208612D2193F2835
:10007A008611402886155219442806114528061566
:10008A00D218492886104A28861452184E28061073
:10009A004F2806144A18532806165428061286169C
:1000AA00172086124A1C5B280A205C2803200800B5
:0E00BA00831203134C088A004B0882000800D2
:1000C800831203134A105108D2001D204A14080055
:1000D800831603138612061206108610061186115F
:1000E80083128612061286110611861006100A203F
:1000F8000A200A20861406148616172086120A205B
:100108008616172086120A208616172086120A20BD
:1001180006108616172086120A20861617208612C1
:10012800861086158616172086120A208611061450
:1001380086161720861206108616172086120A20A1
:1001480086161720861206148616172086120A208D
:1001580006108616172086128615061586140614AC
:0C0168008616172086120A204A14080090
:10017400CC28803083120313CD00DF28C030CD009B
:10018400DF289430CD00DF28D430CD00DF28803044
:10019400CD00DF28831203134D08013A0319BB284D
:1001A4004D08023A0319C0284D08033A0319C3281D
:1001B4004D08043A0319C628C9284E03F0004D0817
:1001C400F0077008CD007008D2001D204A10D0013D
:1001D40050084F07840000080319F82850084F07F7
:1001E40084000008D1006420D00AEA284A140800D8
:1001F4005D208A110A128000840ACB0A0319CC0AF2
:08020400F003031DFA280800B5
:10020C009C21831203138601831686016C20013016
:10021C00D2001D200C30D2001D200130CD00063044
:10022C00CE003A30CF00BA200230CD000630CE00DE
:10023C004230CF00BA203330FB00BB30FC00DF3043
:10024C00FD00FD0B2729FC0B2729FB0B27290000A0
:10025C0000000130D2001D200130CD000130CE0055
:10026C002030CF00BA200230CD000530CE00313026
:10027C00CF00BA203330FB00BB30FC00DF30FD0078
:10028C00FD0B4629FC0B4629FB0B46290000000000
:10029C0006171A30FB005E30FC006E30FD00FD0BC3
:1002AC005529FC0B5529FB0B5529000006131A3058
:1002BC00FB005E30FC006E30FD00FD0B6329FC0B77
:0C02CC006329FB0B632900004E296B29FD
:10033800203084002A3083120313F0007130CB0080
:080348000130CC00FA2008008E
:1002E2006D3469346B3472346F3445346C34653434
:1002F2006B34743472346F346E3469346B346134F9
:020302000034C5
:1003040045346134733479345034493443343634A5
:020314000034B3
:100316004C346334643434346234693474340034B1
:100326006534783461346D3470346C34653400343B
:02400E007A3BFB
:00000001FF
