:02000000FA29DB
:0E000600213083120313FD00FD0B07280800B4
:100014000F3083120313FC004730FD00FD0B102842
:0A002400FC0B10280000000008008B
:06002E00000000000800C4
:1000340083120313C91B2028861121288615491B06
:100044002528061126280615C91A2A2886102B28C1
:100054008614491A2F280610302806143618342816
:10006400061635280612861617208612C9193C284A
:1000740086113D288615491941280611422806157E
:10008400C918462886104728861449184B28061094
:100094004C280614361850280616512806128616BF
:1000A40017208612361C58280A20592803200800D5
:1000B40083120313F801F9011030FC00710DF80DDF
:1000C400F90D7408F8027508031C750FF90203187A
:1000D40072287408F80775080318750FF9070310D8
:0A00E400F00DF10DFC0B6028080080
:1000EE000E3083120313FD00FD0B7B280000080069
:0E00FE008312031338088A00370882000800B6
:10010C008312031336104408C9001A203614080051
:10011C0083120313C7010530470203189C284708B4
:10012C004607840020308000C70A912847084607FC
:10013C0084008001C70347084607C8000A30F40052
:10014C00F5014408F0004508F1005A207808F00049
:10015C007908F1003030F0074808840070088000FE
:10016C000A30F400F5014408F0004508F1005A206B
:10017C007008C4007108C50000307106031DC82842
:10018C0000307006031DCB28CD28C703A12808001A
:10019C00E028803083120313BB00F328C030BB006F
:1001AC00F3289430BB00F328D430BB00F328803004
:1001BC00BB00F328831203133B08013A0319CF2821
:1001CC003B08023A0319D4283B08033A0319D728F1
:1001DC003B08043A0319DA28DD283C03F0003B08FD
:1001EC00F0077008BB007008C9001A203610BE0159
:1001FC003E083D078400000803190C293E083D0702
:10020C0084000008C4008620BE0AFE2836140800AC
:10021C00831203139F01C0309F042E09F000700855
:10022C0083169F051F179F1783123B08F000F00DD4
:10023C007010F00D7010F00D701070089F041F14EA
:10024C0077201F151F1D2C29000028291F101E08A0
:10025C00F100F00183161E08F0040030F1040800D0
:10026C0083120313C001C1013B08C2003C08C30048
:10027C0080303C06F00080307002031D47290030AE
:10028C003B02031855290130C0000030C1003B0867
:10029C00003CC2003C08031C013EC301C3024208DF
:1002AC00C4004308C5003D08C6008E200630BE00C1
:1002BC000030BF003F08003C031D66293E08003C8F
:1002CC00031881293E083D07F20001303E02F00080
:1002DC000030031C013E3F02F10070083D07840012
:1002EC000008F00072088400700880000130BE0223
:1002FC00031CBF0360293D088400203080004008A7
:10030C00410403199F29BE01BF013E083D0784002B
:10031C000008203A031D9629BE0A0319BF0A8B292F
:10032C000130BE02031CBF033E083D0784002D3084
:04033C008000080035
:1003400083160313861206120610861006118611F4
:1003500083128612061286110611861006100A20D4
:100360000A200A20861406148616172086120A20F0
:100370008616172086120A208616172086120A2053
:1003800006108616172086120A2086161720861257
:10039000861086158616172086120A2086110614E6
:1003A00086161720861206108616172086120A2037
:1003B00086161720861206148616172086120A2023
:1003C0000610861617208612861506158614061442
:0C03D0008616172086120A20361408003A
:1003DC007F208A110A128000840AB70A0319B80A0E
:0803EC00F003031DEE290800D7
:1003F4006A228030831603139F00FF308500FF308C
:100404008500880187018312860183168601A02155
:100414000C30C9001A20BB010E2170088312B900E8
:100424007108BA00700887007108F200F3017208BD
:1004340088007008BB007108BC002F30BD00362155
:100444003A08033A031D282AFF303906031D2B2AD4
:1004540006173A08033A031D312A28303906031DCA
:10046400342A06130130C9001A200130BB000430BD
:10047400BC002030BD00CE200230BB000130BC00E7
:100484002F30BD00CE200530FB000F30FC00F130D2
:10049400FD00FD0B4B2AFC0B4B2AFB0B4B2A0130B6
:0804A400C9001A200D2A552A97
:1004D400203084000F3083120313F0005B30B70028
:0804E4000230B800EE2108000F
:1004B600503475346D3470342034533474346134AC
:0C04C60074346534203420343A3400349F
:0204D2000F34E5
:02400E007A3BFB
:00000001FF
