:020000005C287A
:10000600023083120313FC004930FD00FD0B092862
:0A001600FC0B0928000000000800A0
:0E0020008312031322088A00210882000800C0
:10002E0010208A110A128000840AA10A0319A20A5A
:08003E00F003031D1728080060
:1000460083120313A8012408F1000130F00071089F
:1000560003193128F00D7010FF3E2B287008A700F9
:100066002308840070080005F10071080130031DA3
:100076000030F0002608F006031959282508003C30
:100086000318492803200320A503412823088400D8
:1000960027080005F10071080130031D0030F0004B
:1000A6002608F00603195928FF30A8002808F00092
:0200B600080040
:1000B80083120313A00183160614861406118611F1
:1000C800061288018701043083128600880187019F
:1000D8000630A300A4010130A5000130A6002320AA
:1000E80070080319DC28831606118611063083125E
:1000F800A3000130A4000130A5000130A600232090
:1001080070080319DC28A0010A3020020318DC2833
:1001180000308316861801308312A0002008013AA7
:10012800031D9A28063087003F3088002008023ACD
:10013800031DA228DB3087003F3088002008033ADF
:10014800031DAA28CF3087003F3088002008043AD2
:10015800031DB228E63087003F3088002008053AA2
:10016800031DBA286D3087003F3088002008063A02
:10017800031DC228063087003F3088002008073A50
:10018800031DCA28DB3087003F3088002008083A62
:10019800031DD228CF3087003F3088002008093A55
:1001A800031DDA28E63087003F308800A00A882837
:0401B8006C28DD28AA
:02400E004A2F37
:00000001FF
