:02000000462890
:0E0006008312031324088A00230882000800D6
:10001400243083120313FD00FD0B0E28000008009A
:10002400831203139F01C0309F042009F00070085D
:1000340083169F051F179F1783122508F000F00DE4
:100044007010F00D7010F00D701070089F041F14E4
:100054000A201F151F1D302800002C281F101E0801
:10006400F100F00183161E08F0040030F1040800CA
:1000740003208A110A128000840AA30A0319A40A1D
:08008400F003031D3A280800F7
:10008C006620FF308316031385008701860102303A
:10009C008312A500122070088312A1007108A2001F
:1000AC00700886007108F200F301720887004D2871
:0200BC005E28BC
:1000CC0020308400013083120313F0006430A3004D
:0800DC000030A4003A200800E6
:0200C8000F34F3
:02400E004A2F37
:00000001FF
