:020000001628C0
:0E0006008312031335088A00340882000800B4
:1000140003208A110A128000840AB40A0319B50A5B
:08002400F003031D0A28080087
:10002C006F3083120313A000A1017F30A200A30143
:10003C000730A400A5017D30A600A7016D30A800F3
:10004C00A9016630AA00AB014F30AC00AD015B30AA
:10005C00AE00AF010630B000B1013F30B200B301C9
:10006C008316860183128601B601B70180303706EC
:10007C00F00080307002031D45280A303602031848
:10008C0064283608F0003708F100F00DF10D7010FF
:10009C007008203E8400000886000230FB0004300B
:1000AC00FC00BA30FD00FD0B5928FC0B5928FB0B4A
:1000BC0059280000B60A0319B70A3C283A286528C3
:02400E004A2F37
:00000001FF
